0000000000800000admin               Corporate                     CO+000005239478361+000005239478361+000000000000000002500020240115                         A N0010000000000050000000000CORP01
0000000000800001admin               Checking                      CH+000000009382044+000000009382044+000000000000000003750020240115                         A Y0000050000000025000000000CHK001
0000000000800002jsmith              Savings                       SA+000000001000042+000000001000042+000000000000000001250020240115                         A N0000025000000010000000000SAV001
0000000000800003jsmith              Checking                      CH+000000001500039+000000001500039+000000000000000002000020240115                         A Y0000050000000025000000000CHK002
0000000000800004jdoe                Savings                       SA+000000000001000+000000000001000+000000000000000001250020240115                         A N0000025000000010000000000SAV002
0000000000800005jdoe                Checking                      CH+000000000002500+000000000002500+000000000000000002000020240115                         A Y0000050000000025000000000CHK003
0000000000800006sspeed              Savings                       SA+000000005910200+000000005910200+000000000000000001250020240115                         A N0000025000000010000000000SAV003
0000000000800007sspeed              Checking                      CH+000000000015000+000000000015000+000000000000000002500020240115                         A Y0000050000000025000000000CHK004
4539082039396288jsmith              Altoro Gold Visa              CC-000000000010042-000000000010042+000000001000000000000020240115                         A N0000100000000050000000000CC0001
4485983356242217jdoe                Altoro Platinum Card          CC-000000001000097-000000001000097+000000002500000000000020240115                         A N0000150000000075000000000CC0002
